:200000005C400020057F000001CA011001CA011001CA011001CA011001CA011001CA011078
:1C00200001CA011001CA011001CA011001CA011001CA011001CA01103FCA011082
:20003C0000008001100082FFFDFF58003AFFBFF3FFFFFFFFFFFFFFFFFFFFFFFFFFFFFFFF63
:20005C00FFFFFFFFFFFFFFFFFFFFFFFFFFFFFFFFFFFFFFC5FFFFFFFFC5FFFFFFC5C5C5FFC6
:18007C00C5C5C5FF00000000FFFFFFFFFFFFFFFFFFFFFFFFFFFFFFFF2E
:200100003C000000000000000000000034010000000000000000000001000000000000006D
:1C01200000000000000000000000000001000000000000000800000000000000BA
:20013C00340000000000000000000000680100000000000000000000010000000000000005
:14015C00010000000000000000000000080000000000000086
:2001700030000000000000000000000098010000040000000000000001000000FFFFFFFFA5
:10019000FF00000001000000080000000000000057
:2001A0002C0000000000000000000000C4010000040000000000000001000000FFFFFFFF4D
:0C01C000FFFFFFFF08000000000000002F
:2001CC0034050000E401000099A1011095A70110A5C2011009B2011045B80110000000000B
:0801EC00000000002E000000DD
:2001F400280000000000000000000000140200000000000000000000FFFFFFFF00000000B1
:080214000800000000000000DA
:20021C00300500003002000069C201106DC101101FC2011095BA011000000000000000008E
:04023C00300000008E
:20024000300500005402000075C20110A9B601109DBF011049B601100000000000000000DE
:040260003100000069
:200264002400000000000000000000008002000000000000000000000000000008000000CC
:040284000000000076
:20028800240000000000000000000000A40200000000000000000000000000000800000084
:0402A8000000000052
:2002AC00240000000000000000000000C8020000000000000100000000000000080000003B
:0402CC00000000002E
:2002D00000000000A818002004000000000000000000000020000000700100003000000069
:2002F0001C020000BC1800200400000000000000000000000C000000300400001800000080
:2003100040020000C8180020040000000000000000000000240000004804000018000000FF
:2003300000000000D018002004000000000000000000000010000000A00100002C000000C4
:20035000CC010000D818002004000000000000000000000020000000640200002400000002
:20037000FFFFFFFFF818002004000000000000000000000028000000880200002400000067
:20039000FFFFFFFF08190020040000000000000000000000580000003C0100003400000043
:2003B000FFFFFFFF1019002004000000000000000000000010000000600400001800000058
:2003D000FFFFFFFF181900200400000000000000000000001C000000AC02000024000000CE
:2003F000FFFFFFFF2019002004000000000000000000000038000000F4010000280000003F
:20041000FFFFFFFF2819002004000000000000000000000054000000000100003C000000DA
:1804300018000000000000000000000040040000080000000000000050
:1804480018000000000000000000000058040000080000000000000020
:18046000180000000000000000000000700400000800000000000000F0
:0804780001000000F4B10000D6
:040484000100000073
:0404880000000C0064
:04048C0000000D005F
:040490003200000036
:040494000200000062
:04049800B02100206F
:04049C00000200005A
:0404A0000000000058
:0404A40001CA011078
:0404A8000000000050
:0404AC00000000004C
:0404B0000800000040
:0404B4000000200024
:0404B800E020002020
:0404BC00010000003B
:0404C000E018002020
:0404C400080000002C
:0404C8000000000030
:0404CC00000000002C
:0404D0000000000028
:0404D4000000000024
:0404D8000000000020
:0404DC00010000001B
:0404E00010220020C6
:0404E400060000000E
:0404E800010000000F
:0404EC0004200020C8
:0404F0000000000008
:0404F4000000000004
:0404F80000020000FE
:0404FC0000000000FC
:020502002A00CD
:020504000100F4
:020506002500CE
:020508003000C1
:02050A003100BE
:02050C002E00BF
:02050E000100EA
:0105100001E9
:0805140003000000ACB100007F
:08051C000000000000000000D7
:0405240000000100D2
:0405280000000300CC
:04052C0087C401106F
:04053000380500008A
:040534003805000086
:0405380000000000BF
:04053C00800000003B
:040540008000000037
:0405440000000000B3
:04054800E018002097
:04054C003BA50000CB
:040550002000000087
:0405540068B100008A
:040558009CAF000054
:04055C000DC30110BA
:04056000EF5F000049
:04056400DF62000052
:0405680099C801101D
:04056C009BC8011017
:040570000000000087
:04057400D3B10000FF
:04057800F4AC0000DF
:04057C000CAD0000C2
:04058000DCAC0000EF
:0205840008006D
:0205860009006A
:02058800010070
:02058A0000006F
:01058C00016D
:040590000000000067
:040594000000000063
:04059800000000005F
:04059C00000000005B
:0405A000C5A20000F0
:0405A400618300006F
:0405A800259B00008F
:0405AC0015800000B6
:0405B000296B0000B3
:0405B400158E0000A0
:0405B800E956000000
:0405BC00659E000038
:0405C000D96F0000EF
:0405C40011C8011049
:0405C80021C8011035
:0405CC000800000023
:0405D0002400000003
:0405D400180000000B
:0405D80028000000F7
:0405DC0020000000FB
:0405E0003C000000DB
:0405E4000C00000007
:0405E80034000000DB
:2005EC002DE9F04FADF1740D05F054FCE54C04F1280004F1780104F08BFEDFF89493E060BF
:20060C0049460AF0C7F801260821DFF89083ADF86010D8F80000ADF86260014618A888472A
:20062C00BDF8640060801A98A06004F134000AF037F800254FF0040A04F194074FF47A7280
:20064C00DB4920612B4600953846CDF804A006F0F5FD1F20314608F093FC30468DF80800D4
:20066C00AB46ADF80AB002AA8DF80CB03146ADF812B00820ADF80E004FF44870ADF81000C8
:20068C006420ADF8140040F2053001F0FFFA40F2063002210DF10A0201F0F8FA04F15A05F4
:2006AC004FF442701B212A4601F0F0FA40F207300E2104F14C0201F0E9FA1B970E3D1C9555
:2006CC004FF44470314603AA01F0E0FA40F2113002210DF10E0201F0D9FA40F21230022129
:2006EC0004AA01F0D3FA40F2133002210DF1120201F0CCFA4FF44570022105AA01F0C6FAA6
:20070C00D84E5846152106F1470209F043FE04F11C0009F0F5FF0620A02108F031FC072028
:20072C00A02108F02DFC0820A02108F029FC0920A02108F025FC4FF0FF300AF0DAF84FF049
:20074C00FF300AF0D3F809F01BFE06F111020120112102F009FB02200521324602F004FB83
:20076C0005203246014602F0FFFA06F134020320132102F0F9FA721D50460C2102F0F4FA03
:20078C0006F12207062012213A4602F0EDFA7F2003F0CEFF7F2814BF0A200F20052107F02C
:2007AC00A3F907F085FB002851D107F0E9F95FEA00084CD05E4630464FF4805106F04EF91F
:2007CC0006F58056F00CF6D05F4639E007F500304FF4805106F042F95FEA00082ED004F503
:2007EC00847A3D465E46504629464FF4807204F013FCF01900F500394FF4807152464846FA
:20080C0005F00EFB5FEA000812D048464FF48071524606F08EFFA8789AF80210D846884212
:20082C0006D1E8789AF80310884208BF4FF0010806F5807605F58075300BD4D007F5805765
:20084C00780C08BFB8F1010FC0D007F077FB06F0D5F807F023F909F0CFFE09F0BBF906F050
:20086C0007F809F0E7FD06F099F804F1200009F0BBFE04F1400009F013FF606104F1180034
:20088C0008F064FB584608F04EFFE068404909F081FFC8480068D8464FF0050944F620612A
:2008AC00B1FBF0FA08200A213C4FADF858004FF0FF36ADF85A1038681796014616A8884717
:2008CC00002840F0238108213846ADF848100927CDF818B00068ADF84A70014612A8884718
:2008EC00149E0028069640F00581BDF84C0010280CD16088BDF84E10884207D1304601781E
:20090C00B02903D10179083009F03CFB0698002800F0F08008200321ADF840001F4FADF8D2
:20092C00421038681196014610A88847E2E0206909F062FA071C00F0DD803E78781C761E56
:20094C0038D0761E40F0CB800078B978401E2BD0401E25D0801E1DD0401E15D0401E0CD017
:20096C00401E06D0801E40F0BA80084606F0B8FEB5E0084603F07EFEB1E0084604F00EFD05
:20098C00ADE0C04620050020084604F06FFFA6E0B5A10000084603F00DFEA0E09417002050
:2009AC00084604F06BFC9AE0084604F01DFF96E055A400000678701E51D0401E20D0801E22
:2009CC0001283FD9801E02D0801E29D086E01B9809F01AFE10B91B9809F0C8FFE0680A21EA
:2009EC00424608F089F8E0680F21424608F084F8E0681521424608F07FF805F05FFB6DE065
:200A0C001B9809F001FE10B91B9809F0AFFF1C9A40F207300E2182F80D8001F037F95DE049
:200A2C0009F0FCF809F0C4F809F012F808F0EAFE08F09AF806F05AFDE0680A21012208F0C0
:200A4C005BF84BE009F0EAF809F0B2F809F000F808F0D8FE08F088F806F048FD3EE0454673
:200A6C0014E0C046E0AB0000E0680F21012208F043F850460AF04CF8E0680F21424608F04B
:200A8C003BF850460AF044F86D1CEDB2052DEBDB4FF441700EA901F097FF9DF839508DF856
:200AAC0031508DF834809DF83C108DF833809DF83D208DF836109DF838008DF837209DF85C
:200ACC003A308DF830009DF83B508DF8323008210CAA40468DF8355002F046F92670082086
:200AEC00ADF82800344EADF82A9030680B9701460AA8884720690AF007F800283FF417AF97
:200B0C0003F088FF09F078F802F0BAF9A1882078CA082AD321F004010628A18018BF02284B
:200B2C0003D11B9809F022FF2078062805D140464146424608F07EFC2078022815D1464631
:200B4C0011E0E0680F21012207F0D6FF504609F0DFFFE0680F21424607F0CEFF504609F071
:200B6C00D7FF761CF6B2002EEBD0606909F0CCFF00287FF497AE606909F0C2FF0646307A8A
:200B8C00012806D0022808D17089F16801F07AFE03E07089F16802F04DFF0820ADF820002C
:200BAC00054FADF8229038680996014608A88847DBE7C046F0B10000941700202DE9F04FF0
:200BCC00064640F29421012541F22D00ADF10C0DC4F22231C4F2090040F81D5C0868002888
:200BEC00FCD043F6AC7E46F2440AC020C5F2000EC4F20C0AF4464AF8440CDEF80890DCF8B5
:200C0C00041046F25620C4F20800890807D271460A686FF00F0E4EEA1241017001E07221C9
:200C2C00017041F28C38C5F2000858F8D41CC1F304611629A8BF20396246926812175118F5
:200C4C00491C11F10A0FB8BF6FF0090100232C4625EAD96201F01F01C4F2203341F4F851B1
:200C6C00018324EA996E1A60002EC3F808E073D058F83C1CC1F38360C1F38F275FEA994175
:200C8C0067D249F3072CBCF1000F29D549F307214A42B1F1FF3F4FEA620215DA7F0805D12D
:200CAC00400806BF281C2F1C4FF6FF777F080CF1010C05D1400806BF281C2F1C4FF6FF7713
:200CCC00521E0CF1010CE9D1490809D37F0805D1400806BF281C2F1C4FF6FF770CF1010CE9
:200CEC00BCF1000F35DDBCF1020F4FEA6C020CF001031DDB4FF6FF717F0047F00107B9424F
:200D0C0007D2400040F001000F2892BF2F1C0F200F1C7F0047F00107B94207D2400040F04E
:200D2C0001000F2892BF2F1C0F200F1C521EE3D1002B0EDD7F004FF6FF7147F00107B942D1
:200D4C0007D2400040F001000F2892BF2F1C0F200F1C47EA004703E040F6FF77C0F20F0741
:200D6C0009F00CFD39460022002808BF2A1C48F20007C4F20C0738680028FCD04AF20800AD
:200D8C00C4F20C0001613D600AB109F0FDFC002E08BFD82109D058F83C1C58F83C0CC1F31E
:200DAC00870100F0030041EA002188B2009040F2FF3200232C214AF20000C4F20C0006F0CF
:200DCC00ECFA002E1ABF58F8100CC0F30D0B40F2FF3B09F0D3FC0021002808BF291C3868BA
:200DEC000028FCD04AF20800C4F20C00C0F814B03D6009B109F0C8FC002E04BF4FF0000B22
:200E0C00C6F6880B0DD058F818BC0BF07C420BF47C010BF47C4011430BF0FC0B08434BEAB0
:200E2C00000B09F0ABFC0021002808BF291C38680028FCD04AF20800C4F20C00C0F80CB098
:200E4C003D6009B109F0A0FC002E04BF47F28A6BC0F2680B0DD058F81CBC0BF47C020BF4D5
:200E6C007C410BF4707011430BF03F0B08434BEA000B09F083FC0021002808BF291C386839
:200E8C000028FCD04AF20800C4F20C00C0F808B03D6009B109F078FC002E3AD058F8140C70
:200EAC0043F6AC71C5F200014B68C0F303525B08C0F3034117D243F6AC73C5F200031B6885
:200ECC0043F3032C12EB0C0203D4102A02DB0F2200E0002243F30333C91803D4102902DB3B
:200EEC000F2100E0002141EA021100F47F4200F0F00E0B0400F00F0B222E42EA03024EEA02
:200F0C0002014BEA010B08D300F0804040EA0B0B03E043F6277BC0F2710B09F02FFC002185
:200F2C00002808BF291C38680028FCD04AF20800C4F20C00C0F804B03D6009B109F024FCFB
:200F4C00222E26BFD8F80000C0F30070281C4AF2400BC4F20C0B222E4FEA400040F02000AC
:200F6C008BF8090126BFD8F80000C0F34070281C202E40F010008BF809013CBF00200190B5
:200F8C000CD3D8F80C00C20C02F44072800D00F01C0100F0030011430843019009F0EEFB75
:200FAC00019A0021002808BF291C38680028FCD04AF20800C4F20C0002623D6009B109F0E7
:200FCC00E3FB202E26BFD8F80C00C0F301500020222E4FEA400040F060008BF80C0126BF26
:200FEC00D8F80000C0F3C06100216FF07F00222E40EAC1008BF8010126BFD8F80000C0F31A
:20100C00455100214FF60040202ECFF6FF7040EA8100ABF89C0105D248F20000C4F23F0015
:20102C0001900BE0D8F80C000003820D00F47C11920500F4704011430843019009F09EFB3C
:20104C00019A0021002808BF291C38680028FCD04AF20800C4F20C0002603D6009B109F048
:20106C0093FB44204FF0880E8BF8C500002E8BF8C7E01ABFD8F80000C0F3C141002140F648
:20108C008406C9F3815041F03001C4F28C3600288BF8C81041D0401E07D0401E37D0042001
:2010AC00022106F0F4FA00214BE0284608F048FD04460420214606F0EAFA042008F040FD1E
:2010CC008442FAD143F6AC70C5F2000050F8040C0104090C4AF8081CC0F3074E4AF804EC55
:2010EC00CAF8005031680029FCD0002240F2B411CAF80020C1F2000109680B68000E4FF064
:20110C006022072198474FF48060CBF800000420032106F0BCFA002113E00420294606F0C3
:20112C00B6FA43F2BD704AF8080C4FF086094AF8049CCAF8005030680028FCD00021CAF80A
:20114C00001058F8200C4BF2700342F22C0E41F22D0C47F6180240F29449C4F20C0300F052
:20116C003F00C4F2090E8BF8CB0FC4F2090C1A80DEF800004AF8441CC4F260294CF81D1C61
:20118C0003B0C9F80050BDE8F08F70472DE9F04F0820ADF1740DDFF828B3ADF83800012058
:2011AC00ADF83A00DBF8000001460EA88847C54CBDF83C002082002666701098A0624FF616
:2011CC00FF70E08207F094FDB046C44D2070324633460120CDF800802946019004F1A8001F
:2011EC00139006F02BF80220CDF80080324633462946019004F1CC00129006F01FF804203B
:20120C00CDF80080324633462946019004F1F000119006F013F804F14A09042010223146F0
:20122C00A070484604F060FC04F15A0A10225046314604F059FC04F12C073E6004F10A0509
:20124C002E70072060721021E6714A462672022007F06AFD03201021524607F065FD042052
:20126C003A46014607F060FD13981490CDF85890CDF85CA04FF003081A9705F13A001390BC
:20128C0005F17F00159005F12E00189005F16000199034351B950AE06078062818BF07284E
:2012AC0005D1208AE18A1322C0B207F0EFF808200A21ADF830004FF0FF35ADF83210DBF85D
:2012CC0000700D950CA839468847002840F069813046082102900925ADF82010DBF8007035
:2012EC00ADF8225008A839468847DDF828A00028CDF808A040F05581BDF82410208A1029C9
:20130C0040F04181BDF82610884240F03C8155462A884FF6FF73A91C934200F02C8151465B
:20132C000F78A23F00F008812E3F40F02C818978B146002900F0D480891E00F0A880491EEB
:20134C0001297CD9891E4CD0491E23D0491E03D0083900F0E280E4E0119809F009FB029814
:20136C004778002F40F0DD80C1882184018961844089A084129809F047F9002840F0D18010
:20138C00676B002F00F0CD803B68208C618CA28C9847F8E0A88808F0B0F9139849460622AF
:2013AC0004F0A2FB26846684A684A8796073129809F0DEFA119809F0DBFA4FF001094FF65E
:2013CC00FF702779E0824FB9A879082814BF042005206070484608F0F3FEA2E084F8018055
:2013EC009FE06F78E37A27BB291D0A681398026089888180062767706889E082E8892084F9
:20140C00288A6084688AA084E878012B207308D11F2007F01DF84FF47A714143129807F07E
:20142C00BFFBE8786A892D1D0423294606F0AAF97AE0687831286ED1E670042023E06F78E4
:20144C00002F68D1A878A78A6178032812D0E078257927B9012814BF2671E67006E00543F4
:20146C0004D01498394607F09BFB61780729E4D1062008E0062908D0E778002F08BF84F830
:20148C00018051D0022060704EE00720FBE76B786F1C002B3FD1ED78A279ADB960780228E4
:2014AC0018D0072816D0062802D12079012811D1149809F0A9F868B9012008F081FE09E096
:2014CC0094170020E4090020159BC0B2494606F03BFC38703F78F7B923E0C046CDA10000C4
:2014EC006F78C7B9169A0220102107F039FC179A4046102107F034FCED1C29681898AF883A
:20150C0001600125878029466279199B207C657006F01AFC40B10820B5E7A888052109F0B2
:20152C00FBF8B9F1010F2ED1276B002F2BD03F684FB36078B84726E06879132823D12889F0
:20154C00012810D1A07B02280DD1119809F010FA6078062818BF072815D1207CE18A132278
:20156C0006F094FF0FE0052006F072FF0146119807F016FB07E00888C00B04D31A9A042072
:20158C00014607F0EDFB029FDBF800004FB10821ADF81810ADF81A80CDF81CA0014606A8FA
:2015AC008847608A2779E17842082ED320F0010057EA0105608228D0234802886FB9E17979
:2015CC00207A8DF80C101B9F8DF80D003B680DF10E052B60B988A98001E08DF80C80607A03
:2015EC008DF81400A17A8DF81510D0B203A909F08DF848B10820276B60702FB13D681DB1FF
:20160C003868014608208847608A810806D320F002006082304604F087FD608AC108FFF40C
:20162C0046AE20F00400A77B60827F1E03D07F1E3FF432AE3BE601200090618BA28BE38B19
:20164C00208B05F01FFD32E6F40900202DE9F84FC64DC74ED5F8EF1FCC4C7368D5F8F30F6B
:20166C008843C5F8F30F002BC5F8FF1F00F011817788012B00F0D680DFF8FCB2BF4FDFF871
:20168C0000A3DFF80093DFF80083022B72D0032B40F06A810024B06855F8312C746000283D
:2016AC00A2F5C062B8BF404211460029B8BF494288422EDA111C54BF02206FF00100B2693B
:2016CC0000EB4100032190FBF1F18918B161F368706998420BD0B1F11002B8BF524230694D
:2016EC001038B8BF40428242B8BF88B209DB98B20090A04830214FF47F42082305F04DFEC2
:20170C00308A00909B4804214FF4F802122305F044FE5846046001688908FCD2046001266D
:20172C0044600E203E6002F017FE50460468EFF3118584F3118849460820B0FA80F00A1AA7
:20174C00D07F431E0128D37704D14246106820F00800106085F31188EFF3118384F3118866
:20176C000420B0FA80F0091AC87F421E0128CA7754D14EE055F8310CB0F5C06F17D0032729
:20178C00776001F089FC45F8397C0027276020688008FCD27748394660220523009105F004
:2017AC00FCFD0126266020688008FCD364E0002171605846016002689208FCD20160012609
:2017CC0041600E203E6002F0C7FD50460468EFF3118584F3118849460820B0FA80F00A1A5B
:2017EC00D07F431E0128D37704D14246106820F00800106085F31188EFF3118384F31188C6
:20180C000420B0FA80F0091AC87F421E0128CA7704D14246106820F00400106083F31188E2
:20182C00BDE8F88F55F8312C02214BF2F52071605043000A37B95649096821F07F414018BA
:20184C00400801E0002171806060000CA0600126E660032745F8397C00272760206880082E
:20186C00FCD24448394660220523009105F095FD266020688008FCD345F8216C45F8397CA0
:20188C000820C5F8FF0FC5F8F30F45F8396CBDE8F88F40480068006801462020884741F697
:2018AC001D574FF002080F2045F82D0C00214FF4C072072345F8297C2E48CDF8008005F068
:2018CC006CFD012744F8047C54F8040C8008FBD3308845F81D7C012821D0032045F8390CB0
:2018EC004FF00009C4F8009020688008FCD22148494660220523009105F04FFD27602068E7
:20190C008008FCD345F8217C45F8399C0820C5F8FF0FC5F8F30F45F8397C474623E04FF005
:20192C000009C4F80C90032045F8390CC4F8009020688008FCD20F48CDF8008049466022BE
:20194C00052305F02AFD276020688008FCD3202045F8210C45F8399C0824C5F8FF4FC5F821
:20196C00F34F45F8397C7760BDE8F88F39400C40B822002000A00C4034600C4004800C40C9
:20198C00ECB100008F180020201E002038600C4010200940A00100102DE9F04F5FEA0009C4
:2019AC00ADF11C0D00F05581AC480068EFF3118280F31188DFF8C8B29BF80400012818BFC9
:2019CC00012003D1022100208BF8041082F31188012800F03C8109F08FF80390A9480468D8
:2019EC0004EB0B0009F090F84FF00008464637460BEB0401CDF810800191B0B90C46084625
:201A0C0009F076F80546A868400808D3E8682969024601209047C0B2002840F010812846EA
:201A2C0009F062F80546AC42EDD1002F40F00B8109F056F80290059789480760012008F09F
:201A4C007FF8012804D1404606F044FC4FF00108844F386880680146304688478648193003
:201A6C000090D0F8FF0FB9F1000F00F08C80864C0A34E57905B10126A5790DB146F00206DA
:201A8C0065790DB146F00406DFF8DC9165782DB1B86A006B49460246C88D904725782DB154
:201AAC00B86A006B49460246488D90476F4901200860B86A8069014646F0200088476C4D99
:201ACC00DBF80010286840F001002860480813D2684808F0DEFD8246BAF1040FF8D0D5F8FB
:201AEC00180220F00300C5F81802B86C4068024660480321904701E001200490059800F0FC
:201B0C0009FBB86A0099806BD1F8FF1F8047049858B9B86C40680246564851469047D5F8C7
:201B2C00180240F00300C5F8180238688068014601208847504801688909FCD3B8F1010F9B
:201B4C0002D1012006F0C6FBB86A4069014630468847B86A406B0146304688470128F8D12C
:201B6C0066782EB1B86AC06A49460246C88D904726782EB1B86AC06A49460246488D904701
:201B8C003A49012008603A480168032221F00101016001988BF8042008F0B6FF00280598F7
:201BAC0018BF01200125C0B9019C204608F0A0FF0646B068C00806D3F06831690246042085
:201BCC009047C0B230B9304608F08EFF0646B442EFD102E02948006880472148009F0560DB
:201BEC00D7F8FF0F08F0D0FD019808F08DFF059FC8B9019C204608F07BFF0646B068000913
:201C0C0006D3F0683169024608209047C0B230B9304608F069FF0646B442EFD103E0174831
:201C2C0000688047022702988BF8045008F054FF04F082FE039808F04BFF38460AE00F4874
:201C4C0000688047022701208BF80400F2E7062000E0022007B0BDE8F08FC046ECB10000F9
:201C6C000C4009409001001090AC0000282008600C2008400040034014100940E0B1000041
:201C8C00201E0020DCB100007C18002003462DE9F041A248A04DA3F2013C002714460E468B
:201CAC00BCF11A0F1CD8DFE81CF02A0125011E011B00FA00F400DD00CC00C500BE00B60020
:201CCC00AE00A6001B001B009D009000820078006B001B001B001B001B0052001B002600DD
:201CEC00272B06DA022E04D12188184607F048F9CDE002270DE1012E40F003812846C17814
:201D0C00012900F0EE8002792178017182B9002900F0FF804078012800F0D480042800F095
:201D2C00D180062800F0CE80052800F0CB80F0E02178002940F0ED804178032900F0CD8021
:201D4C00072900F0CA80052940F0E380C5E0012E40F0D7802078012840F0D38005F1F000C7
:201D6C0008F052FC50B9384604F0DEF9071C40F0D0802846CC3008F0FBFDCAE01627C8E033
:201D8C00022E40F0BE8021880A29C0F2BA80B1F5486F00F3B6801E3015E0022E40F0B18077
:201DAC002188B1F5FA7F80F2AC801C300BE0022E40F0A78021880629C0F2A380B1F5486FE9
:201DCC0000F39F801A300180A3E0022E40F0998021880629C0F29580B1F5486F00F391801E
:201DEC001830F0E7012E40F08C802178022980F288800B300DE0012E40F0838021780429BF
:201E0C007FDA0A3005E0012E7BD12178082978DA093001707DE0062E73D121683E300160D0
:201E2C00A688868075E0012E6BD12178042968DA0830EEE7012E64D12178042961DCC01D49
:201E4C00E7E7202E5DDA05F1890839461F22404603F04AFE21463246404603F0DDF8AE71CF
:201E6C0039460FE0202E4CDA05F16A0839461F22404603F039FE21463246404603F0CCF880
:201E8C006E710121287C3246434605F05DFF07463FE0022E35D121882846143093E7012E99
:201EAC002FD12846017901291BD0C2782178C17062B900292DD04078012803D0042818BF1D
:201ECC00052826D1012008F07BF922E0217801BB4178022918BF05291BD1007C08F034FB76
:201EEC0017E0122715E0042E0BD1216828462C3001600EE0102E04D128465A3005E0102ED3
:201F0C0001D0182705E028464A301146102203F083F83846BDE8F081E4090020E409002033
:201F2C002DE9F0411C4615468C4208BF854282BF00230022E5E0002C08BF002D0AD10029C6
:201F4C000EBF00286FF000006FF0000100F0E1F8BDE8F0815FF000085FF0000E002C08BF3B
:201F6C008D429CBF2C1C0025070C47EA01470E0CB44208BFBD429EBF5FEA044444EA1544E7
:201F8C005FEA0545070A47EA01670E0AB44208BFBD429EBF5FEA042444EA15645FEA05253C
:201FAC00470847EAC1774E08B44208BFBD4200F29380870847EA81778E08B44208BFBD423C
:201FCC007CD8C70847EA4177CE08B44208BFBD4266D8070947EA01770E09B44208BFBD428D
:201FEC0050D8470947EAC1674E09B44208BFBD423AD8870947EA81678E09B44208BFBD42E3
:20200C0024D8C70947EA4167CE09B44208BFBD420DD8E60146EA5566EF01B14208BFB84221
:20202C0001D3C01BB14158EB08085EEB0E0EA60146EA95664FEA8517B14208BFB84201D30C
:20204C00C01BB14158EB08084EEB0E0E660146EAD5666F01B14208BFB84201D3C01BB14168
:20206C0058EB08084EEB0E0E260146EA15762F01B14208BFB84201D3C01BB14158EB0808F2
:20208C005EEB0E0EE60046EA5576EF00B14208BFB84201D3C01BB14158EB08084EEB0E0E02
:2020AC00A60046EA9576AF00B14208BFB84201D3C01BB14158EB08084EEB0E0E660046EAF1
:2020CC00D5766F00B14208BFB84201D3C01BB14158EB08085EEB0E0EA14208BFA84201D3C5
:2020EC00401BA14158EB08085EEB0E0EA34208BFAA423EBF2D0A45EA0465240A89D3734638
:20210C0042461E4617460B46024631463846BDE8F0817047F8B504460020C4F209000068D1
:20212C00800880F0BB8007F0D2FA42F22421C4F208010A68002112F0030F18BF0121D208EB
:20214C0028BF41F00201002C18BF41F0040143F65036C2F2000696F90720821A052A04DA47
:20216C00B2798A4208BFB2886FD041F29C340F28A0F10F02C5F2000424DB02EB021217125C
:20218C00072F88BF07273D46062D88BF062554F825C00423A64603EB85035EF80330CD0848
:2021AC00A3EB0C0303F0FF0C24BFC3F30725AC448D0824BFC3F30745AC444D0805D30CEB35
:2021CC00136C02E04FF0000C674654F82730CC0803F0FF0524BFC3F3072425448C0824BF88
:2021EC00C3F3074425444C0828BF05EB1365A2EB07221FFA8CF3534380330022082B88BF93
:20220C00012243F6B473C5F200031C681B684FF4D07C34275219241703F0FF0307FB14C40F
:20222C005C434FF6FF73B4FBF2F2934238BF1A1C802892B2B28005DA10F1800F03DA6FF0DE
:20224C007F0000E07F20F071B17142F20800C4F2090001681F2A4FF00000316008D340F267
:20226C00FF11914206D25208401C9142FBD301E01F22B2800F3A4FF600714FF0350E120950
:20228C00C8F2A401C4F2090E40EAC2000143CEF8FB1F4FF0000CCEF8FFCFF8BD43F65632A1
:2022AC004FF6FD50082141F2300EC2F20002C0F2A4001170C4F2090ECEF80000F8BD70475A
:2022CC002DE9F04F8346ADF15C0D06F025FE4FF00009012805D107F0EEFE022808BF4FF05A
:2022EC00010954490868C0F38150012806D151F80C1C0120090E884040EA09094E494F485C
:20230C004F4D09780068C0F34600286006F004FE2C46012818BF206802D12068401C206082
:20232C0038B1FF2204F1400107467F1E01F8012BFBD1DBF80010002601F0FF02FF2A1BD067
:20234C008C46DE46324601270CF0FF01884204D907FA01F319EA030F01D0022067E00CF0F8
:20236C00FF015EF804CF61181E4381F84020521C0CF0FF01FF29E9D1092001F011FDC4F845
:20238C0004B001A800212422082308F09DFB4FF0010804F1240001AA8DF81C80414608F006
:2023AC008FFB23682BB300276035BA4608FA07F019EA000F17D1064204BF07F0FF0141F438
:2023CC00C04104D0E01990F840005BF820101D4802F00CFAF8B24FF0FF3107F035FE2368AD
:2023EC00C5F800A001E0042028607F1C2D1D9F42DCD30AA800213022082308F05DFB0025AD
:20240C0004F1080010210AAB0F4A009508F050FB0E4A52F80D0C414620F4F85040F400507A
:20242C0042F80D0C0A4BC2F8FF1F2846196017B0BDE8F08FB43F0050583B0020801208406E
:20244C0050380020007FC767E57D00000D300940080009402DE9F84F0D4681462868D9F80A
:20246C000440D9F808B0002800F0A98008F01CFB616D21B108F014FB032028749FE001212C
:20248C002974656508F00CFB94F8700030B194F859204C49A06E114306F042FEDBF80010D8
:2024AC00486840F002004860D9F804C0D9F80830D5F800E09CF8582019681FFA8EF0904047
:2024CC00B1F1804F1FFA80FA14BF3F4E3F4E4048AA6832B99CF858108F00C2590CF1720164
:2024EC0008E09CF858108F000AEB0201C21952F8082C491EB2607160196801F10808C6F881
:20250C000080B2684FEA0E1143F6F07E10390EEA01010A43B2601A68B2F1804F14BF2D4A36
:20252C002D4A6E68002E04BFC0599E1D04D0C01950F8100C5644761E90601660C2F804809A
:20254C00906801439160DCF86C00DF6841689A68096847EA020088621968486A40F003001C
:20256C004862DBF80010486940F0010048616E6808F09AFA194D0746287801280AD016F079
:20258C00704F02D1102006F023FC042006F020FC01202870384608F083FA207828B9616834
:2025AC003834204608F078FA10B10120BDE8F88F484600F0F3FD2046002108F06DFA002051
:2025CC00BDE8F88F00000680000500203004002070AC000010050020400400205E3B002056
:2025EC002DE9FE4F82460E460CAF307A3C8899461546800928BF082080F09780084602A9D5
:20260C0007F06EF9012808BF012000F08E80BDF80800DFF81CB142F6021100274FF0FF0828
:20262C00401A6BD048F2FF21401A33D0401E18D0401E61D1002C5DD1B9F1020F58D128788E
:20264C00062825DAF06829880180F168584688425ED159460878497804F03CF94FF0020875
:20266C0059E0002C46D1B9F1060F41DA287810280EDCF06829464A4602F0CEFC04F078FCBB
:20268C00F16858460C30884242D14FF0010842E080273DE074BBB9F1100F29DCF06829462C
:2026AC004A4602F0B9FC5C46584600F10C0220781678012802D9401F12D029E0617855787E
:2026CC0003F088FA1EB9284607F0A6FF05E004F111012846324607F0EDF808F061F817E0A2
:2026EC00D2F8010004F11101324602F095FC0FE00D270DE00B270BE00A2709E00094012104
:20270C002A4650464B460191314604F01BFE0746B8F1FF0F08D05846001D006820B10068C8
:20272C0010B10146404688473846BDE8FE8FC046E8190020B0B5456884684D48297BADF184
:20274C00180D01291AD001462F7E227C637C494837F0010741EA020240EA03000190464888
:20276C00009218BF011CA27C1143029195F859200323FF2A13D0014610460DE0A17C627C05
:20278C00237C41F00041024343F00043029195F85900009339490192014304230391FF2121
:2027AC0005F15C004DF82310694602F0B1FDA866002808BF002058D0287B314951F8200029
:2027CC00012828D02068B0F1804F14BF22220A22217CA86E07F028F92068B0F1804F14BFFB
:2027EC0021220922617CA86E07F01EF92068B0F1804F14BF24220C22A17CA86E07F014F9E8
:20280C0095F85910FF292FD02068B0F1804F14BF23220B2225E02068B0F1804F14BF21223F
:20282C000922217CA86E07F0FFF82068B0F1804F14BF22220A22617CA86E07F0F5F8206826
:20284C00B0F1804F14BF24220C22A17CA86E07F0EBF82068B0F1804F14BF23220B2295F8DE
:20286C005910A86E07F0E0F8012006B0B0BDC046000480A0004000800004C0A000200080CC
:20288C0058AC00002DE9F04F04460D464D4E68782978ADF1140D01EB0021ADF800107188A0
:2028AC00BDF80000884217D1706940F6FF7200EB0110024203D1000BC0B207F0D1FFBDF818
:2028CC000010B079AA1C1023090107F0D3FF7088401C81B2718007E007F07AFD20464FF66F
:2028EC00FF7103F02FFF7188B088884264D10DF1020007F069FEBDF802004FF6FF7181427E
:20290C0057D0BDF80200002853D0BDF80400814203D0BDF80400002843D1B288F088002765
:20292C00110101F47043C5B203975FFA92F2C91A82181FFA81FB5FFA82FAAA4528DBAAEB75
:20294C00050101F10108A8420CBF04240024AA45D8BFA34516DD284621460DF10602042306
:20296C0007F083FF04270DF1060919F8011B039806F068FE7F1E0390F7D1241DA4B2B4F53E
:20298C00805FE4DBF0886D1CB8F10108EDB2DAD10398002106F056FE002106F053FEADF87D
:2029AC000400BDF80400BDF80210884201D101F09FFD07F00DFD02E0204603F0C3FE05B0AC
:2029CC00BDE8F08F3C1900204D4B2DE9F04F0C46343B998BADF13C0D86460991587B0E90C2
:2029EC00598B089158780D90198B0791988C0C90D97A588C0691D3F82CA00B90997A188C2E
:202A0C00059193F804900A90597A93F80C800491197AD88B0391D9795A7902919979DE8A20
:202A2C000191D9789F8A00919978AEF5407C0025BCF11D0F10D8DFE80CF05D5653504E4CE4
:202A4C004A4743403E3C3937350F3432302E2D272422200F1D1B1A18BEF1270FA8BF0225BE
:202A6C0049DA704605F0F4FC14E0DDF83880C146CDF834900D98059016E00C980B900B9869
:202A8C000A900A98074622E04433186820609888A08030E009900998089008980790079830
:202AAC000690069E268026E0059804900498039001E03E33E9E7039802900298009008E063
:202ACC00019A03F1890111E003F16A010EE03846E0E700990EE03833D7E7C4F800A00AE058
:202AEC0003F15A0101E003F14A011022204602F093FA00E0217028460FB0BDE8F08FC0467C
:202B0C00180A00202DE9F04F8046D8F80450D8F808400F46ADF1540D07F0C6FF95F89810CB
:202B2C0004F10409012903D107F0BAFF002077E04FF0010B85F898B007F0B2FF1FB90DA81D
:202B4C0007F01AFD0DAFF86828B9D8F80800067B90F80DA002E0067890F801A0FF2EE5D065
:202B6C00BAF1FF0FE2D0FF222F49304C139241EA0600119041EA0A011291201D11A902F090
:202B8C00C7FB00282060D1D031460D2206F04CFF206851460E2206F047FF38782870786884
:202BAC006860387A002130220823E86001A807F083FFCDF81880002400941D4AD9F800102A
:202BCC0005F1100001AB07F073FF01A824220823214607F079FF05F12C008DF81CB05946CC
:202BEC0001AA07F06DFF287838B905F14800214601AA07F065FF0F486860AC672C72EC675C
:202C0C0099F8040001F0CCF8404604F033FE05F18400094A00940421434606F0E3FC404649
:202C2C0015B0BDE8F08FC04600200084303B002061390000A9A8000055A600002DE9F0433B
:202C4C0004466668A5680F46ADF1540D07F02CFF96F8A4102D1D012903D107F021FF00200C
:202C6C0076E04FF0010986F8A49007F019FF1FB90DA807F0D5FB0DAF4FF00008C6F85480FF
:202C8C003869306178697061387E3076387B307338783070786886F87080706078694146BC
:202CAC00092828BF494686F85810687801F078F8204604F097FAE87B86F859002046FFF7B9
:202CCC0039FD50B9687801F047FB07F0EDFE86F8A48007F0E5FE444639E001A84146302213
:202CEC00082307F0E9FE0694CDF800801A4A297806F11C0001AB07F0DBFE307878B901A8CA
:202D0C0041462422082307F0DFFE06F138008DF81C90414601AA07F0D3FE104800E0B86829
:202D2C00B06003F0A7FB317BF066012906D1B06E0B4907F02FFDB06E00B1846006F1900010
:202D4C00084ACDF800800421234606F04BFC204615B0BDE8F083C046A9330000B1A8000087
:202D6C003D8B0000F5A700002DE9F0470C469046DFF8F890414D3F4F3D493F4AD9F80030E3
:202D8C0008284FF00006ADF1180D69D8DFE800F05F5B4C4844403A1105C0072C59D1404632
:202DAC00828805F108018A8087798F710068086057E003940420ADF80A004FF0080AADF88D
:202DCC0008A002A89847D8B904980746C0B1696805F1170088420BD005214846ADF80210DD
:202DEC006A68ADF800A00068019201466846884738464146224602F00FF96F602C7030E00F
:202E0C0013262EE0142C24DC01F11505294601E0142C1EDC0D460BE0142C1ADC3D4606E0AC
:202E2C00142C16DC3D4603E0142C12DC1546153528463146152202F057FE2846414622465B
:202E4C0002F0EAF80DE0142C03DC1546DEE7082C01D0182605E0404642686A394A60A5E735
:202E6C000226304606B0BDE8F087C046941700201D160020F3150020C9150020A4150020B3
:202E8C002DE9F0413E4F3878002876D03D4C208910F07F0F00F07F086DD005F030FD3A4E16
:202EAC0021783578A0700DB902293AD12279C30917D2400824D304F1140005F0C7FC04F16F
:202ECC001A0005F087FCE578E088002D08BF217816D00021E17021784FF47A7292FBF0F075
:202EEC0009E0521CD0B20228207109D1E0884FF47A72B2FBF0F002B2500000EBC200E06043
:202F0C000025022935700CD12089C00909D304F1200000F0C1FA052822D008B103F0CCFF2F
:202F2C002178E66816B901291BD124E0022904F1140509D0022020700026267100F0E8FD5F
:202F4C0010B1404600F0C0FE2089000A02D3E068401EE060002012212A4602F027FF0AE03D
:202F6C00E560002020710126267000F0D1FD10B1607800F07BFC00203870BDE8F081C046F0
:202F8C005C3B0020B81F00205B3B00202DE9F0430646ADF11C0D07F07BFD06F0D3F94FF0F5
:202FAC0000090546CDF8089007F024FC30F0010002D00298A84202D16FF0040068E0706870
:202FCC004C4658B1B0F1FF3F05D001A906F08AF930B107465BE04FF0FF3000E020460190C5
:202FEC0007F052FD0199012701EB000802E013463DE001936868019907F04EFD00282FD00A
:20300C0003A804F0F5F9E0B9BDF81000694606F081F990B9B268BDF80000BDF81210134652
:20302C00059A984748B1BDF80000BDF81210B081059BF1814F46336112E0059902A805F0E6
:20304C00EDFF0198641CB0F1FF3FD3D00028D1D007F01AFDB8EB000302D001989842C8D281
:20306C00029E06F0ABFF05F1080146B1334653F80C2C002ABBD10A6843F80C2C0E6007F012
:20308C0033F924B1686807F0FBFC641EFAD1384607B0BDE8F08370472DE9F843804607F006
:2030AC006DFB002100B901213A4D2D1F28680028FCD0DFF8DC90012609F10407FC6A2E60E6
:2030CC0009B107F061FB3448C4F3072100F10804616007F053FB0146002001B9304601469B
:2030EC0028680028FCD03F682E6009B107F04CFBC7F38441A8F5C060A160B8F5C06F20607A
:20310C00B4BF6FF001030223626803EB4003032093FBF0F00918104602290FDB1E290BDB63
:20312C003F28B9BF521C401C3F22101CE2603029B4BF10391F210DE0E0600BE010F13F0F4F
:20314C00ACBF401E6FF03F00E06011F1100FACBF10310021216180B24FF47F42082330219A
:20316C000090484604F019F90096484604214FF40032112304F011F9208A04214FF4F80223
:20318C0012230090484604F008F9BDE8F883C04600A00C4004800C40B82200202DE9F047B2
:2031AC0007467C68BE6807F07FFC0834E16C002968D007F075FC3168486820F002004860E5
:2031CC003168486A20F003004862606EF5684168B268096845EA0200C1F80405316848693F
:2031EC0020F00100486130684FF00108C0F820803068B0F1804F14BF40F201104FF4807080
:20320C00224909688847384603F0ECFFE06CD0F804A007F049FC1E4D8146287850B11AF0CA
:20322C00704F02D1102005F02FFB042005F02CFB00202870484607F033FCE16C087C0428F8
:20324C0002D003200874E16C606E4368B268F0681B68454610438540DD623068B0F1804F4C
:20326C0014BF0C480C48026808689204A0EB9250401E0860206800230246E3643846904795
:20328C00BDE8F08707F00CFCBDE8F087780000105E3B002008050020380400203A482DE989
:2032AC00F04F0821ADF11C0D0068ADF8101001460120ADF8120004A88847374CBDF81400C0
:2032CC0060800698A06003F059FC04F10C0006F03DFE4FF0000884F800804FF47A76A6804E
:2032EC0006F0B6FB02206421012206F075FF4FF0FF3104F1100001F04BFD2448244D0768EE
:20330C002448B5FBF7F9B0FBF7FA38E0012006F0C7FB484607F0FCFB02A804F0A5FD834683
:20332C00404606F0BDFBBBF1000F1CD002A801A96A4600F0ABF99DF805308DF809309DF8F1
:20334C0004208DF808209DF806008DF80A009DF802108DF80D109DF801308DF80C309DF801
:20336C0000208DF80B204046062102AA02F03AFEA0887043401BB0FBF7F007F0C9FB2078D3
:20338C000128C3D05046F8E794170020F0B100008038010040420F00700D00202DE9F04750
:2033AC000646B1680A687468D06908341062400842D2606E40680268CD68D2F804052842B9
:2033CC0006D00B68586A20F002005862C2F80455D2F804258868024258D00A68506A20F06C
:2033EC0001005062606E406889680068C0F80415E06C00250574E76CD7F804A007F054FB78
:20340C00DFF88C80814698F8000050B11AF0704F02D1102005F038FA042005F035FA4046A4
:20342C000570484607F03CFB2068E5643946024630469047BDE8F0870A68506920F0010012
:20344C005061E76CFFB9506820F002005060506A20F003005062606E8B684468CF6821687E
:20346C00B2F1804F47EA0300C1F804050CBF4FF4807040F20110074909688847304603F09E
:20348C00B1FEBDE8F0873046FFF788FEBDE8F0875E3B002078000010FEB53D4C0546062158
:2034AC00601C017007F002F818B907F079F90020FEBD002601206821667002F08BFB2220AD
:2034CC00694601228DF80000372006F0F3F908B90520607007F064F96078002818BF301C23
:2034EC0054D101200C2102F075FB02206946012206F01BFF00283CD09DF80000400836D3CD
:20350C0003200DF10101072206F00FFF68B39DF80700000927D29DF802709DF801009DF864
:20352C0004609DF803109DF806309DF8052040EA072041EA062142EA032200B2288009B2E5
:20354C00698012B2AA80B4F90A30584300122880B4F90C00414308126880B4F90E004243CD
:20356C001012A88007E0032004E0042002E0022000E00120607011208DF800006946012286
:20358C000A2006F097F907F00BF96078FEBDC0464C21002038482DE9FC470068006801465E
:2035AC0020208847354DDFF8D8A04FF002080F2000214FF4C072072345F82D0C41F61D50CD
:2035CC0045F8290C5046CDF8008003F0E6FE2D4C012644F8046C54F8040C8008FBD3DFF8E6
:2035EC00A890B9F8000045F81D6C01281FD0032045F8390C0027276020688008FCD2394648
:20360C00504660220523009103F0C7FE266020688008FCD345F8216C45F8397C0820C5F80F
:20362C00FF0FC5F8F30F45F8396C464620E00027E760032045F8390C276020688008FCD2CB
:20364C00CDF80080504639466022052303F0A5FE266020688008FCD3202045F8210C45F878
:20366C00397C0824C5F8FF4FC5F8F34F45F8396CC9F80460BDE8FC87A001001039400C40AE
:20368C0000A00C4038600C40B8220020F8B53A4BC578047944EA05242501B3F90270447910
:2036AC0090F800C045EA24151C88EE10A6EB4406C4EB251464432513B3F9044077436C43B1
:2036CC00A41304EBE724877804EB840580352E12457845EA0C20B3F90A500E60000140EA0A
:2036EC00271E6010A0F57A40811049434C136C43B3F9085045436D1005EBE4054FF4004426
:20370C0004EBA544DD886543EF1331D09C46BCF90E40BCF91030BCF90C50164EC9126043E8
:20372C004B4340F63544290403EB400301EBA30104FB1E65081304FB1050C10F19BFB0FB03
:20374C00F7F040004000B0FBF7F0BCF91410BCF91650BCF91240C30886085B4371435B0B58
:20376C0049136B4301EB2331641800EB24101060F8BDC046000050C3043B0020F8B506F018
:20378C00FDFF314C256805F00C000C2855D0E8082ED22E480068EFF3118780F311882C4EEF
:2037AC00B068002107F068F97169B269091A8A4238BF002187F3118826480068884217D2D4
:2037CC002548264A264D036812682868B3FBF2F22018891A07F04CF92868201807F044F973
:2037EC000120FEF7D9F82868201807F039F925E0280922D21B48690939BF016821F0010172
:20380C00016841F0010102460160D2F898004FF0805440F00300C2F89800D4F8B8018069EF
:20382C00014620208847D4F8B8010F4C806B2168804701202060206800E030BF06F0A4FF7A
:20384C0002F080FEF8BDC046201E0020ECB1000078010020E4B10000E8B10000F0B10000CE
:20386C00D4B100008C2108402C200940F8B5064606F01CFE002855D00120682102F0AAF998
:20388C00002851D0314D0920AC1D0122207021466B2006F00FF8002844D00720A8712146DE
:2038AC0001226C2006F006F800283BD001271D202146AF713A4605F0FDFF002832D040203F
:2038CC00A87121463A46382005F0F4FF50B3C020A87121463A46692005F0ECFF10B3AE716E
:2038EC001F2021463A4605F0E5FFD8B10620A87121463A461E2005F0DDFF98B12920A87154
:20390C0021463A466B2005F0D5FF58B1E91C1C203A4605F0CFFF28B1691D1B203A4605F0C4
:20392C00C9FF18B906F03CFF0020F8BD3A2021463A4606F0FAFC06F033FF002129706869FC
:20394C00034905F0EDFB3846F8BDC0464C21002007000680F8B5064635480068B468756808
:20396C004068014620688847226801210835C2F81C1868B12B78FF2B0AD0FF21400929705C
:20398C0051D20420C2F80408022006F0BBFF4AE02878002847D0401E13D0401E02D0FD388D
:2039AC0044D03DE0D2F80828A86E0270A86E401CA866EF6E7F1EEF6619D0012F88BF0921EF
:2039CC0027E06F6E7F1E6F6613D1EF6E7FB10220E96D28702268097C012F4FEA410141F019
:2039EC000101C2F8001894BF03210B2113E004210DE0286E22680078C2F80808286E022F16
:203A0C0000F10100286604D2EF6E17B905210020287022680220C2F8041806F073FFF8BD9A
:203A2C00FF202870F8BD304603F058FBF8BDC046AC010010F0B50C460746ADF11C0D06F0D9
:203A4C0093FF10B1684604F0A3F9E179A0792F4D002600EB01206E808010A880E079A1798F
:203A6C0001EB00218A10201D694606F08FF8211D00283AD1A968384606F076FD400831D375
:203A8C0038461B210822334606F06EF8059048B305F1180009212A4606F066FA08224189DF
:203AAC00ADF81220059CADF810109DF800002070BDF800100598091241709DF802108170D2
:203ACC00BDF8022001AD1212C2702968031D32463846196004A906F0DFF918B104A81B21B3
:203AEC0006F050FA06F074FC0EE0084606F012FC6861000BE88006F06FFD204604F02AFBB7
:203B0C003846314602F01EFE07B0F0BD3C190020F8B5354D3149686905F002FBFF20A8701A
:203B2C00287100242C7068216C70012002F052F8002808BF271C4FD02C4680200122A11D1A
:203B4C00A0716B2005F0B6FE06F02AFE244925480D68B0FBF5F006F0DBFF03F0DBF9A61DBD
:203B6C00071C39D0022004F0C9F8022005F014F906F09CFC60B304F025FA58B301200C2105
:203B8C0002F028F830B30F203070314601220A2005F090FE42F21070B0FBF5F006F0B8FF1D
:203BAC0004F110011020032206F0BFFB04F1100140B108788030608148788030A081887855
:203BCC008030E08101220B203146A27105F072FE06F0E6FD04F03EFB3846F8BD07000080CB
:203BEC00F0B10000A08601004C21002031482DE9F04F08214FF0010BADF1140DADF80410AA
:203C0C000068ADF806B0014601A888472D4DBDF8080068800398A86003F096F805F10C00D1
:203C2C0006F0E8F94FF47A764FF000090422AE80484685F80090014606F0F2FA29785846CF
:203C4C00024606F0EDFA06F08AFE022064215A4606F0E6FA4FF0FF3105F1100001F098F8A2
:203C6C0015491648164F0C68B0460646B0FBF4FA1AE0584604F00EFB504606F049FF0DF161
:203C8C000200694601F0D0FB484604F003FB484604216A4602F086FBA88808FB00F0801B97
:203CAC00B0FBF4F006F034FF28780128E1D0B7FBF4F0F7E794170020F0B100003832040078
:203CCC0040420F00E0120020BCB5074606F0EEFB002860D0314C207800282DD167B306F0F5
:203CEC00E5FB38B30120682101F074FF20B30920A11DA07101226B2005F0DCFDA51DC8B15D
:203D0C003F202870294601226C2005F0D3FD0021217078B1611D1B20012205F0CBFDE11C4C
:203D2C001C20012205F0C6FD20B13A202946012206F0FBFA06F034FDF8B2277040B380F0ED
:203D4C00FF00A0716821012001F044FF28B3A11D6C20012205F0AEFD06F022FD247806F0DA
:203D6C00A5FBC4F38014B0B104F02CF9A8B101200C2101F02FFF80B1002C0CBF0020112093
:203D8C00694601228DF800000A2005F093FD02E004F060FABCBD06F003FDBCBD4C2100206C
:203DAC002DE9F04105462E480068EFF3118880F311882C4A505D411C0028515549D12A4C22
:203DCC00A900675C07F03F003F280C4401D0FFF7E7FF607800F03F003F2801D0FFF7E0FFBD
:203DEC00668837F07F0019D1F80911D24FF08054D4F8B801406901463046884704F5DC743F
:203E0C002068406B0146304688470128F8D120E0164850F82610012088471AE04FF080540C
:203E2C00D4F8B801C069014630468847D4F8B801406A014630468847D4F8B801C06A01468B
:203E4C003046884701210A4A0A48116001688908FCD388F31188284605F04AFEBDE8F0813A
:203E6C00ECB100007C18002090AC00009418002028200860282008402DE9FF4782460D4626
:203E8C000CAF287A3F8899461446800928BF082055D2084602A905F023FD012808BF0120DB
:203EAC004DD0BDF80800DFF89C8042F60211FF26401A2ED048F26311401A012827D827BB4F
:203ECC00B9F1010F1FD1BDF808104AF666200027884202D12178032913DA2178EA681170B7
:203EEC00BDF80810884205D0E968404688421AD13E461AE0E9684046401C884213D1012638
:203F0C0013E080270FE00D270DE00B270BE00A2709E000970121224650464B46019129466B
:203F2C0003F010FA0746FF2E08D04046001D006820B1006810B10146304688473846009087
:203F4C00BDE8FF87001F00202DE9FE4F82460D460CAF287A3C8898469146800928BF0820FF
:203F6C0056D2084602A905F0BBFC012808BF01204ED0BDF80800DFF89CB042F602110026E8
:203F8C00FF27401A2ED048F23F11401A34D0401E14D0801E24D10CBBB8F1010F1CD199F8DC
:203FAC0000000A2808DBE9680870E9685C46601C884221D1022721E080261DE074B9B8F149
:203FCC00010F09D199F80000E9680870E9685C468C4211D1012711E00D260DE00B260BE099
:203FEC000A2609E0009401214A46504643460191294603F0A7F90646FF2F08D05846001D96
:20400C00006820B1006810B10146384688473046BDE8FE8FD41B00202DE9FE4F82460D4669
:20402C000CAF287A3C8898469146800928BF082056D2084602A905F053FC012808BF012090
:20404C004ED0BDF80800DFF89CB042F602110026FF27401A2ED048F21F11401A34D0401E41
:20406C0014D0401E24D10CBBB8F1010F1CD199F800000A2808DBE9680870E9685C46601CB2
:20408C00884221D1022721E080261DE074B9B8F1010F09D199F80000E9680870E9685C467E
:2040AC008C4211D1012711E00D260DE00B260BE00A2609E0009401214A46504643460191DF
:2040CC00294603F03FF90646FF2F08D05846001D006820B1006810B10146384688473046C1
:2040EC00BDE8FE8F6C1C00202DE9FE4F82460D460CAF287A3C8898469146800928BF0820EE
:20410C0056D2084602A905F0EBFB012808BF01204ED0BDF80800DFF89CB042F60211002617
:20412C00FF27401A2ED048F2FF01401A34D0401E14D0401E24D10CBBB8F1010F1CD199F8CA
:20414C0000001E2808DBE9680870E9685C46601C884221D1022721E080261DE074B9B8F193
:20416C00010F09D199F80000E9680870E9685C468C4211D1012711E00D260DE00B260BE0F7
:20418C000A2609E0009401214A46504643460191294603F0D7F80646FF2F08D05846001DC5
:2041AC00006820B1006810B10146384688473046BDE8FE8F001D00202DE9FE4F82460D469A
:2041CC000CAF287A3C8898469146800928BF082056D2084602A905F083FB012808BF0120C0
:2041EC004ED0BDF80800DFF89CB042F602110026FF27401A2ED048F27F11401A34D0401E40
:20420C0013D0401E24D10CBBB8F1010F1CD199F800000A2807DBE9680870E9685C468C42C0
:20422C0022D1022722E080261EE07CB9B8F1020F0AD1E868494609880180E9685C46601C86
:20424C00884211D1012711E00D260DE00B260BE00A2609E0009401214A4650464346019141
:20426C00294603F06FF80646FF2F08D05846001D006820B1006810B10146384688473046F0
:20428C00BDE8FE8F901A00202DE9FE4F82460D460CAF287A3C8898469146800928BF08202A
:2042AC0056D2084602A905F01BFB012808BF01204ED0BDF80800DFF89CB042F60211002646
:2042CC00FF27401A2ED048F26F11401A34D0401E14D0401E24D10CBBB8F1010F1CD199F8A9
:2042EC0000000A2808DBE9680870E9685C46601C884221D1022721E080261DE074B9B8F106
:20430C00010F09D199F80000E9680870E9685C468C4211D1012711E00D260DE00B260BE055
:20432C000A2609E0009401214A46504643460191294603F007F80646FF2F08D05846001DF3
:20434C00006820B1006810B10146384688473046BDE8FE8F941D00202D492DE9F0410968B4
:20436C00EFF3118881F311882A4B195C4A1E01291A5449D12849800045180E5C6F8836F0D0
:20438C007F0019D1F00911D24FF08054D4F8B801806901463846884704F5DC742068406B3B
:2043AC000146384688470228F8D120E01D4850F82710002088471AE04FF08054D4F8B80105
:2043CC00006A014638468847D4F8B801806A014638468847D4F8B801006B0146384688474C
:2043EC0001210E4A0E48116001688908FCD306F03F003F2801D0FFF7AFFF687800F03F0087
:20440C003F2801D0FFF7A8FF88F31188BDE8F081ECB100007C18002090AC00002820086054
:20442C0028200840941800202DE9F04782460E467068DAF80810DAF80450002401F10408A1
:20444C0010B9F06800284ED0287801280FD106F02BFBA96F39B1E96F8E61EE6706F020FB75
:20446C000120BDE8F087AE67EE6706F019FB06F01BFB1E4F81463878012804D0042004F07A
:20448C00A7FC01203870484606F00AFB05F12C094FF0FF31484606F0FFFAD8F8000006F03E
:2044AC00DBFA5046314601F075FED8F8000006F0CFFA287898B905F148004FF0FF3106F087
:2044CC00EBFA06F0F1FA0646387818B1042004F0DBF93C70304606F0E3FA287A00B90124E4
:2044EC00484606F0CDFA2046BDE8F087593B0020F0B54FF4F0204FF48051ADF1140D02F072
:20450C00ADFA2A4D4FF4F0201021AA1C01F088FC4FF4F83004216A4603F00BF90098B0F142
:20452C00FF3F2CD04FF0805606F5EC7420681E4F006801210A46034638469847D6F8D801A9
:20454C00406801210246384690474FF4F83005F0D0FC4FF4F8363046102101AA03F0E9F825
:20456C0038B101A83146102205F0B4FC1036700CF1D02068406800210246384690474FF49B
:20458C00F8300068B0F1FF3F0CD0E88929898000890002468B18A3F5F833002BC8BFC91A55
:2045AC00034B984705B0F0BD004003400023002001F001001CB52D4C401E02D0401E44D0BC
:2045CC001CBD06F00BF9400931D32089FF2831D00120694604F058FABDF8000010F07F0F85
:2045EC0018D0BDF800002081022001F077FF05F05DFFA8B11E48006841F28831B1FBF0F0F8
:20460C0006F086FA04F004F9BDF8001041EA0020208105E0BDF800002081002001F05EFFCD
:20462C0004F108020120022101F0C0FB07E0FF20083420800120FF21022205F0EDFB00203B
:20464C001222014605F0E8FB1CBD02200DF1020104F01AFA9DF80200410001EBC001E18011
:20466C0004F1280002F096FF1CBDC046B81F0020F0B1000070B52C4E2C4D012806D068BBD9
:20468C0031460020491C05F077FB27E03146012005F072FB34462078022817D0621C0020E9
:2046AC00012102F0CFFE28680A21002204F024FA28680F21002204F01FFA606806F0D0F9A8
:2046CC0028681521002204F017FA07E006F086F8621C60700121002002F0B4FE314608785B
:2046EC00012820D1344628686178490834BF002201220A2104F000FA28686178890834BF22
:20470C00002201220F2104F0F7F961786068C90807D206F0A5F928681521002204F0ECF994
:20472C0070BD06F0A1F970BD802100202C05002038B52D4C054600206908A4F10104207005
:20474C0009D300F0B7FC002808BF207803D0207840F001002070A90809D301F026FF002850
:20476C0008BF207803D0207840F002002070290909D300F0EDFC002808BF207803D02078C8
:20478C0040F008002070E90809D303F03AF9002808BF207803D0207840F00400207069092A
:2047AC0009D302F0B7FB002808BF207803D0207840F010002070A90909D303F02BFD0028DA
:2047CC0008BF207803D0207840F020002070E90909D305F09AFE002808BF207803D02078D6
:2047EC0040F04000207038BDC13A0020F8B50D46EEB2290824BF27494D40274BB400DFF8EF
:20480C009CC0195900EA05020CEA020200F4E02C85EA0107BCF5E02F00EA070721EA000198
:20482C00C7F3006742EA010201D1510E14D300F4E0210F4310D002F4E027B7F5A02707D096
:20484C00B7F5803704BF22F4003242F4A02203E022F4803242F4C0221A51114CC10D04D3B6
:20486C00C5F38052A4F180018A55000E11D306F01BF9290E03D201220021B24002E001226A
:20488C00B24011465034236893431943216006F007F9F8BD006000A000100840007F077FF9
:2048AC00802002402DE9FE4F82460D460CAF287A3C8898469146800928BF082049D20846B5
:2048CC0002A905F00DF8012808BF012041D0BDF80800DFF884B042F602110026FF27401A4C
:2048EC0022D04AF2C031401A0BD0401E1AD1BCB9B8F1010F12D199F80000E968022708707B
:20490C001EE06CB9B8F1080F08D149460A6858460E30496802600127416011E00D260DE005
:20492C000B260BE00A2609E0009401214A46504643460191294602F005FD0646FF2F07D08B
:20494C005846006820B1006810B10146384688473046BDE8FE8FC046381B002029482DE90F
:20496C00F04308210125ADF1140DADF804100068ADF80650014601A88847254CBDF80800E1
:20498C0060800398A06002F055F904F10C0005F007FB4FF47A76A68005F00AF90220642160
:2049AC002A4605F025FC04F0D5FD4FF0FF3104F1100000F0EDF91448144F0568B04643F6FA
:2049CC0098200646B0FBF5F916E005F039F9484606F09EF80DF10201684602F0C3FF002074
:2049EC0004216A4601F076FCA08808FB00F0801BB0FBF5F006F08CF820780128E5D0B7FB8B
:204A0C00F5F0F7E794170020F0B1000040420F002810002070B52B4C2278607882424BD085
:204A2C0000200121224603F0B5FB244D2878022802D1207805F018FC63782278204E9808EB
:204A4C0019D3900817D22878062810D1E56820693168401B4FF47A75414340F6B830B1FBE4
:204A6C00F5F1884207DA41F27070884203DD02F011FC2278637803F0030003281CD102F068
:204A8C000300032818D030682569E16853409B083CBF6168A5684FF47A736D1A684341F2E9
:204AAC007071B0FBF3F0814206DA15200A2103F01BF805F091F92278627070BD2005002015
:204ACC00F0B10000EC2200202B482DE9F8430D469C4608AF91466968BC883E884B7802785C
:204AEC0009784FF0000842F6232701EB0321C91B674628D0491E052917D9891F0CD026395F
:204B0C0033D1072E2ED8C6F10701A14298BF8CB23618083631461FE0B24223DB921BA2428E
:204B2C00D8BF94B23C8040680BE0E86805F0B4FC80B2B04216DB801BA042D8BF84B23C802D
:204B4C00E868311809E0082E0CD8C6F10801A14298BF8CB231180F313C804846224600F04A
:204B6C005BFA06E04FF0070803E040464FF00A0838804046BDE8F883A415002041F21C3030
:204B8C0010B5C5F200000468B4F1FF3F08BF002405F064FC40F2844346F25C01002242F21A
:204BAC00082E012040F2801CC4F26023C4F20C011A60C4F2043E0860C4F2283CCEF800000E
:204BCC00DCF8000038B140F20010C4F2203000682046FBF7F3FF44F20402C4F203021068A3
:204BEC00052142F24803C2F20001C4F2030320F003000143116019684FF0000EC0F2391EF4
:204C0C006FF35B414EEA01000421C4F2090118600868C0F30130012809D10A684FF6FF7077
:204C2C00CFF6FC40104040F400320A60086010BD2DE9F04F09AFADF11C0D924606903C880C
:204C4C000493D7F80880059197F80490039430B1081C04D0181C18BFB8F1000F01D102207A
:204C6C0038E01E4801780026354630E0069C04EB8504B4F800B04FF6FF70584523D0A778A7
:204C8C000FB303990498059A05F06EF90290D0B178080AD3CDF80090CDF80480029B012146
:204CAC005846524600F0DEFE0643A07880080AD3CDF80090CDF804802088029B5246022182
:204CCC0000F0D0FE0643054801786D1CEDB2A942CCDC304607B0BDE8F08FC046E4090020DC
:204CEC0029482DE9F84FD0F80090EFF3118589F31188264CA068012105F0BEFE4FF0010A5E
:204D0C004FF00008064621686769A4F81CA02068A4F81E80791A321A8A42A6EB07062DD338
:204D2C0085F311884546EF195046394605F08CFE761B0546B542F6D9EFF3118B89F31188FA
:204D4C00E08B012804D14046394605F07DFE0546B5F1FF3F06D0A169AD1BA94238BF0D1C87
:204D6C00E91901E0A5697919284605F069FEA4F820A0A4F81C805D46276001E0A4F81C8003
:204D8C0085F31188BDE8F88FECB10000780100202DE9F84F0E46044605F0AEFE83462548C2
:204DAC000068EFF3118A80F31188D4F808904E4533D01E481E4D0768002E06D4AF6901207B
:204DCC0000FA06F807EBC60702E04FF000087F19207D012817D1204605F02EFE206C05F099
:204DEC0093FE18B1E1686868884368602869844212BF381C6F613868214605F019FE686872
:204E0C0048EA00006860A660C4F80C802764002E44BF00206861012028818AF3118858461B
:204E2C0005F056FE4846BDE8F88FC046E805000000010020ECB10000F8B5264C2068EFF329
:204E4C00118680F3118824491D4D0B680420B0FA80F043F00403281A1F3002780B60521CFD
:204E6C00027086F311882068EFF3118380F311880A680820B0FA80F042F008022D1AE87FFA
:204E8C000A60401CE87783F311880E20FEF788FF0C480068C0F38150032814BF00200120A9
:204EAC0009490A4A088017683FB9094C402020600123D36100204860F8BD0120F8BDC0465B
:204ECC008F180020B43F0050B822002004800C402C500C40ECB10000201E0020F0B5204822
:204EEC000127F84201D002F0E3FE204D204F214EBD4206D203CD0478A4003459401CA047BE
:204F0C00F6E71D48002800D08047164D164FBD4202D210CDA047FAE7F0BD03251BE04168CB
:204F2C0008300A1C2A400BD11A1C2A40AB4305D0046804300C600431043BF9D1131C05D010
:204F4C00047801300C700131013BF9D1021C2A4001D0A84304300368002BE0D17047C04668
:204F6C00FFFFFFFF0000000000000000C0BD000048BE000040BD000059C50110F0B504468B
:204F8C00234DA7682868ADF12C0D67BB0C2000F0E9FB071C1ED0684600212422082305F0B7
:204FAC0043FD002306976A466168ADF810301948059305F035FD386078B908210C22ADF8A2
:204FCC002410A869ADF82620014609A88847384604F0D6FB6FF0030018E0E0687860206988
:204FEC00B860A7600AE080470646386805F038FD2069B86068680146304688473868616859
:20500C0005F036FD386805F02FFD00200BB0F0BD7C17002063A80000002A4AD05FEA000CBC
:20502C008B071CD1830722D1102A08D370B4103A78C978C0103AFBD270BC103238D0042AB1
:20504C002CD3082A05D30C2A24BF08C908C008C908C008C908C092072AD0920F22E00B789E
:20506C000370491C401C521E22D08B07F7D1C30714D18307D8D0121F12D308C903801B0CC2
:20508C004380001D121FF8D20AE008C903701B0A43701B0A83701B0AC370001D121FF4D29F
:2050AC00121D05D00B780370491C401C521EF9D16046704710B50020442100F08BFD0028A8
:2050CC0008BF002440D0214C1F200222214605F02CF9002835D021880806000C40EA21201D
:2050EC00782815D11020208021460220024604F0E1FB30B302202146024605F016F900B342
:20510C0021880806000C40EA2120B0F5805F01D0208016E00020208021460220024604F0E5
:20512C00C9FB70B102202146024605F0FEF840B121880806000C50EA2120208008BF012407
:20514C0000D0002405F02CFB204610BD483B00201CB50020772100F03DFD002808BF002497
:20516C003FD0D0206946012205F0DFF8002835D09DF80000582831D1F5206946012205F066
:20518C00D4F800282AD09DF8000038BB55208DF8000069460122F42004F08CFBF0B1F4207D
:2051AC006946012205F0C1F8C0B19DF80000552814D1B6208DF8000069460122E02004F0DA
:2051CC0079FB58B1F4206946012205F0AEF828B19DF80000002808BF012400D0002405F05A
:2051EC00DFFA20461CBDF8B5064604F009FC43F61C35C2F200056F68044604F068FA2A694C
:20520C00E41B4FF47A716143090C801A48BF404240F6B83289198A4216D3062814DAA968D5
:20522C00E868814210D82A6872B1401A44F24021C0F20F014143080C00EB9140824212D9FC
:20524C001046C82811D312E043F6AC71C5F200014868400828BF4FF4FA600DD209687D20AF
:20526C0001F0FF014843C82801D2C820F8BDB0F57A6F88BF4FF47A60F8BDFEE71CB5234C7A
:20528C00401E02D0401E31D01CBD05F0A7FAC00824D32078FF2823D00120694604F09AF83D
:2052AC009DF80010207869B9A0B104F1080005F05FFB002004F0F4F900200222014604F066
:2052CC00A3FF07E030B9012004F0EAF904F1080005F04CFB9DF8000020701CBDFF20207072
:2052EC000120FF21024604F08FFF1CBD0220694604F070F89DF80000410001EBC00161802D
:20530C0004F1080002F046F91CBDC046702200202DE9F843204E0F4604464FF0FF3106F1FE
:20532C002405284605F0B8FBA946002000E0401C6FB117F82010FF2909D032688A4204D934
:20534C0006EB8101096E0029F1D000241CE0002020604FF0010860600546A0600EE00878EC
:20536C00636808FA00F01843606006EB82030A6808491C66204604F045F86D1C27B107EBA4
:20538C0085010A78FF2AEAD1484605F079FB2046BDE8F883007FC76750380020401E1CB514
:2053AC0002D0401E2ED01CBD05F018FA1C4C00091DD32078FF281CD00120694603F092FD75
:2053CC009DF8000030B19DF80000012816D10121217007E0002006222070014604F0FCFEFF
:2053EC004FF0FF3104F11000FFF7D2FC06E0FF2020700120FF21024604F0EEFE002004F057
:20540C004FFB1CBD0220694603F06CFD9DF8002004495000091D00EBC20008801CBDC046A4
:20542C00700D0020700D00202DE9F04105460E460020442100F0CEFB002808BF002035D0EE
:20544C001B4C04200222214604F06FFF5FEA000822D021880806000C40EA2120C0F38038EC
:20546C002080C00B18D3A11C0120022204F05DFFA71C5FEA00080FD0B91C0320022204F075
:20548C0054FF80463A78B978FB78787840EA0220288043EA0123338005F082F9B8F1010F80
:2054AC0003D0A01C042105F039F84046BDE8F081483B002038B5042004F042FB1A4C0228F5
:2054CC0018BF03281FD103200090164800214FF040521C2301F061FF17480068EFF31183FE
:2054EC0080F3118815480421B1FA81F1401AC17F4A1E0129C27703D1206820F004002060A0
:20550C0083F3118838BD094D0A48094A296803686018B2FBF3F105F0ABFA2868201805F024
:20552C00A3FA38BD00A00C40201E0020D8B10000A0860100F0B10000ECB100008F180020CE
:20554C0010B51A481A490078086820F0030040F00100086002F03EFF01F018FE0021154C69
:20556C00154821600068C0680146022088471349134A086820F0010008601068D4F8EC1F88
:20558C00EFF3118480F311880E4B0F481A680421B1FA81F1401A42F00402C17F1A60491C57
:2055AC00C17784F311884FF0FF3010BD583B00200440034040100940A00100108C210840E3
:2055CC00ECB10000201E00208F1800202DE9F0411E4987684668086804F09AFC38680024F4
:2055EC00C0F810483968C1F80448D1F8200820F01000C1F8200805F057FA154D80462878E9
:20560C0018B1042003F040F92C70404605F048FA387AFEF7A1FE06F1100005F0FDF906F1DD
:20562C002C0005F0F5F9307818B906F1480005F0EFF906F1840004F023FD05F035FA86F889
:20564C00984005F02DFABDE8F081C046303B0020593B0020F8B50E46307A1D46144606AFD2
:20566C00400928BF082036D23888002818BF0B2031D10846694604F033F9012803D1002197
:20568C0001202980F8BDBDF800004AF601410027401A15D0401E0BD0401E03D038460A27C9
:2056AC00288017E002202880F0680088208011E005202880F068016821600079207109E002
:2056CC0001F056FC04480C3002782A80F1682046FFF7A2FC3846F8BDE8190020F8B5054630
:2056EC001E480068EFF3118780F311881C4C20684FF0805640F080002060D6F88C01406812
:20570C00014601208847D6F8B001006A014614208847286906F5C675810C14BF010C0421BA
:20572C002868406A024601209047D6F88401006823210246002090472868C0690146012084
:20574C008847206820F4C02040F480302060206840F00100206087F31188F8BDECB10000F0
:20576C0000200940F8B5001D84B214F0030002D0241A241DA4B204F021FC01461948102C11
:20578C0047680160C8BF8768388800221646C30BDD0319D126B984420ADD3A46012617E077
:2057AC001388C3189BB29C42138011DC174618469FB1001B80B20428B4BF3C88385344F43E
:2057CC0000443C803F1D08E080F40040002680B2C71938880028DAD10027084604F084FD10
:2057EC003846F8BD84170020401E1CB502D0401E2BD01CBD04F0F2FF1A4C40081AD3207864
:20580C00FF2819D00120694603F0CCFD9DF8000038B900200422014604F002FD4FF0FF316B
:20582C0000E0012104F11000FFF7B2FA9DF80000207006E0FF2020700120FF21024604F07C
:20584C00EFFC002002F026FD1CBD0220694603F0A9FD9DF8002004495000091D00EBC200B4
:20586C0008801CBDE0120020E0120020401E1CB502D0401E28D01CBD04F0B0FF194C8008D7
:20588C001AD32078FF2819D00120694603F0FAFC9DF8000038B900200422014604F0A8FC03
:2058AC004FF0FF3100E0012104F11000FFF770FA9DF8000020701CBDFF2020700120FF2118
:2058CC00024604F095FC1CBD0220694603F0DAFC9DF8002004495000091D00EBC2000880CF
:2058EC001CBDC04628100020281000202DE9FE4305460E46307890460AAF02281AD019496A
:20590C00DFF8649070680C681022494604F0F2F90027494610B914B3012007E0706810315D
:20592C00102204F0E7F970B9CCB1022029464246A04714E070684278007842F6021100EB7B
:20594C000220814201D00A2709E0398801200091424601903146284601F0F4FC074638464E
:20596C00BDE8FE834C190020F8AE000041F2A00010B5C5F20000D0F8781203680A0F03F0B2
:20598C00FF03802B28BF0023D0F878024BF69A11C0F30F344FF0FF30A14213D02431A142B4
:2059AC0007D04BF62031A1421DD1E2B90A3358B210BD12B1921E02D010BD0A2010BD1433A2
:2059CC0058B210BD521E0DD0921E04D0121F04D0521E04D010BD142010BD152010BD1633B1
:2059EC0058B210BD0A2010BD2DE9F043ADF13C0D05F082F8184D1A4C002680462D1F183CD7
:205A0C00684600213C22082304F0FEFF55F8041F6068A768069023680897002205910F481B
:205A2C000493694604F0ECFF071C10D004F0C6FA8146384601F02CF948B1484604F054FC58
:205A4C00241D761CDCD0404605F042F801E002F099FA0FB0BDE8F08378170020C5A50000B0
:205A6C003CAB00002DE9F0430E4691461D4607AF80461B214FF6FF72ADF11C0D03AB04F085
:205A8C0073F8059038B300210091BDF80C100191FF2402947C6802460DF11203404629460D
:205AAC00A047041C12D16889ADF81000700805D340464A4604A904F0EFF905E03B7840463D
:205ACC004A4604A904F02EFE041C05D004A81B2104F058FA00E01524204607B0BDE8F083EC
:205AEC00002213460A46194671B510F0030F0BD0002A82BF00F8011BB2F1010210F0030F26
:205B0C00F6D1002A08BF71BD11F0FF0141EA0121042A18D341EA0141082A0FD30E46102A1D
:205B2C0008D30C460D46B2F10F0312F00F0272C0103BFCD812F0080F18BF42C012F0040FB9
:205B4C0018BF40F8041B12F0020F18BF20F8021B12F0010F18BF017071BDFEE7F8B5144678
:205B6C0086684268084602F10C05203827D0401E21D0401E1CD123781549906E194300F003
:205B8C0045FE90B93068B0F1804F14BF23220B222178E86D03F048FFE86D95F84D1001F0C8
:205BAC007BFC207885F84D0010E04FF0FF30F8BD6FF00100F8BD002085F86400F8BD297881
:205BCC000020012908BF012085F864000020F8BD002000802DE9F843804689461648194C88
:205BEC00144A016804F11400B2FBF1F104F054FF00284946404608BF002018D0124A0F4D2F
:205C0C0011702978814211D02870206804F014FE261D304604F0B0FC28783146012804BF30
:205C2C0007482061002004F053FA20600120BDE8F883C046A0252600F0B100005A3B00201F
:205C4C0012B00000903A00205D3B0020F8B50E46307A1D46144606AF400928BF082030D25D
:205C6C003888002818BF0B202BD10846694603F037FE012803D1002101202980F8BDBDF8BB
:205C8C0000004AF681210027401A13D0401E0BD0401E03D038460A27288011E00120288037
:205CAC00F068007820700BE002202880F0680088208005E012222A80F1682046FFF7ACF926
:205CCC003846F8BD1FB5194B0C4601461046002289B1491E06D0491E23D1012C0DD10078E7
:205CEC0018701FE0082C08D1124903680E310B604068486016E0062C01D0182212E00468B3
:205D0C0003F10C010C608088888008240094FF240194074C029498681C33FEF789FF024685
:205D2C0000E00222104600901FBDC046341B0020F5750000381B002070B50646F088F568F9
:205D4C000B28A5F108052CDAB0880B2829DA04F035F9154CF28891000C3401EBC2016118F7
:205D6C004968E1B104F0C0FA30792870B0796870307AA870F188880000EBC1002018F168E4
:205D8C004068083003F04AF9F188880000EBC10024186068406804F073FE002070BD04F0E2
:205DAC00A3FA6FF0020070BDEC1700207FB5194C0B46002511461A4678B1401E06D0401E08
:205DCC0024D1012A0BD10878207020E0022A06D112480988401C018019E0122A01D018259D
:205DEC0015E004F10C0612223046FFF715F908200090FF230193084A0292A068314604F125
:205E0C0020032A46FEF714FF054600E00225284600907FBD901A0020595C0000901A002006
:205E2C002DE9FC414FF0020816460F46054602E004F0FAFBA619002F08BF012028D001F034
:205E4C00EBFE20BB03F03EFB08BB05F0FF04C4F58074BC4288BF3C1C8DF800808DF8035064
:205E6C00280C8DF80100280A8DF8020004F0E4FB6846042103F00EFB3F1B651928B93046D2
:205E8C00214603F007FB0028D2D004F0CDFB0020BDE8FC8170B5002124220823ADF1280D48
:205EAC00684604F011FE134C01256A4629468DF8185004F1140004F003FE0F480068014690
:205ECC004FF44070884702F053FD261D304604F053FB00203146257304F0FAF8074BFF222F
:205EEC001A700749206000220A7008B904F084FD0AB070BD903A0020780000105D3B002059
:205F0C005A3B0020F8B50E46307A1D46144606AF400928BF08202CD23888002818BF0B2063
:205F2C0027D10846694603F0DBFC012803D1002101202980F8BDBDF800004AF64121401A48
:205F4C004FF000010DD0401E05D0801E03D008460A2128800CE001202880F068007820703E
:205F6C0006E006202880F068026822608088A0800846F8BD10B54AF2000434214FF0805287
:205F8C001C23C4F20C04204602F0A2F8012826D0204634210122002302F09AF8002808BF6B
:205FAC0000201DD08020C1F200000068804703F027FD43F61C3344F24022C2F20003C0F2A6
:205FCC000F029C681968D860041BA1EB91016243120C8A4224BF1A60012001D21960012030
:205FEC0010BDFEE71FB5174B0C4601461046002269B1491E08D0491E1FD1012C09D1134B87
:20600C005B1C0078187019E0012C02D1F9E7062C01D0182212E0046803F10C010C60808814
:20602C00888008240094FF240194074C029498681433FEF7FDFD024600E002221046009083
:20604C001FBDC046D41B0020115F0000D41B002038B50079184CA0B903F0B0FF217800293D
:20606C0004BF6FF00704051C13D0491EC9B2217029B904F039F9606802F0E2FE18E005468B
:20608C0013E003F09BFF05462078FF2805D16FF00604284604F028F90BE0401CC0B20128C6
:2060AC00207002D1606802F0E6FE284604F01CF90024204638BDC0462023002000B540F28D
:2060CC001630ADF1140D6946FCF77EFC40F213300DF10201FCF778FC4FF4467001A9FCF720
:2060EC0073FC9DF800109DF80220BDF800009DF804308DF80610BDF802108DF80820021228
:20610C008DF80A3009128DF80720BDF804008DF8091000120DF1060206218DF80B000020A7
:20612C00FFF7D0FD05B000BDFEB5194C0546208C218B81420CDC618B814209DBA08B618C0D
:20614C00884205D1E08BA18C884208BF18271DD0052002F07DF9278B638BADF80270A28BCD
:20616C00ADF80430E18BADF806200646ADF80810E08AADF80000684604F0EEF9071C05D169
:20618C0004F1F0003146A57302F00AFD3846FEBDE409002098B54268806851660B680832FD
:2061AC0013664B6853668B689366C968D166576E77B9D16D0B7C0168580040F00100C1F835
:2061CC000008D36E0220022B107012D30B2211E0D16D0368097C01274900C3F80018116EA7
:2061EC00177004684B1C13660978C4F80818016802200322C1F8042804F084FB98BD2DE9F0
:20620C00F041054615F8017B90460E461CE0B8F1000F05F101050BD0FF2C09D8022015F87D
:20622C00011B401E41EA0424F9D101E0042C02D315F8011B00E0394630462246FFF754FC29
:20624C00A61901E006F8010B15F8010B8742F9D115F8014B002CE9D115F8010B2C780002DE
:20626C002418D4D1BDE8F08138B5054645210020FFF7B0FC002808BF002029D001206946E3
:20628C00022204F052F8041C1BD0BDF800000024C013C003B0F5004F08BF0124B0F5004F42
:2062AC000FD100206946022204F03FF8041C08D0BDF80000BDF80010000240EA212028804D
:2062CC0003E02846022104F029F904F069FA204638BD70471FB5164B0C4601461046002279
:2062EC0069B1491E08D0491E1DD1012C09D1124B5B1C0078187017E0012C02D1F9E7042C02
:20630C0001D0182210E0006803F10801086008240094FF240194074C0294D8681033FEF7D0
:20632C0087FC024600E00222104600901FBDC0466C1C00201D6600006C1C0020F8B50446F0
:20634C0004F0A6FB00F0A4FC054604F0D5FB074604F0AAFB0146A2881148BBB263F30F0675
:20636C0089B261F31F466030002130F80C7F5FB902804560A181A7688760686800252061EC
:20638C00304603F0B1FF09E0974208BF6FF00205F6D0491C0B29E8D301F0F4FD2846F8BDCA
:2063AC008C1700201FB5164B0C4601461046002269B1491E08D0491E1DD1012C09D1124BB6
:2063CC005B1C0078187017E0012C02D1F9E7042C01D0182210E0006803F10801086008243F
:2063EC000094FF240194074C0294D8681033FEF71FFC024600E00222104600901FBDC046B5
:20640C00001D002083660000001D00203EB504461448042208230178ADF802201248ADF8E4
:20642C00003089000068019102466846904700280CBF029900210E4D281D0029016008BF30
:20644C0013200ED04FF6FF7002F0B4FD600838BF002006D3054B284605211022083001F031
:20646C00E1F93EBDE4090020941700205CB10000A41E00202DE9F041154D6C686079ADF180
:20648C00380DFDF78DFC04F00FFB2E6880463078B8B901A800213022082304F00DFB0695DD
:2064AC00002700970B4A2179301D01AB04F000FB012030702168084ACF6221688A60216872
:2064CC004860404604F0ECFA28460EB0BDE8F0818CB100009FA800000004002038B5174D6D
:2064EC00041C09D100202870FDF7EEFB03F0ECFA05F1280004F03CFA022C1ED12C4602232C
:20650C000A2100224FF47A752370E08861700C4BA270B5FBF0F0E27001B21A70480000EB69
:20652C00C100E06003F02EF8208900F0FF00FDF7CBFB04F1280004F019FA38BDB81F0020D3
:20654C005B3B002045F2280010B5C4F20900046854B343F6AC71C5F200018B6803EA5300E2
:20656C00C00E21D2486880081ED20022C4F209021068096810F0050F4FEA114101F0F001D9
:20658C0001F5E0710BD1A1420ED2190F38BF40F00100D90E38BF40F00400106010BDA14287
:2065AC0084BF20F00500106010BD1CB500204321FFF710FBFE200222694603F0B6FE10B389
:2065CC00BDF80000BDF8001045F249440006000C40EA21208442ADF8000014D1FF206946D6
:2065EC00022203F0A2FE70B1BDF80000BDF800100006000C40EA2120B0F5805FADF8000097
:20660C0008BF012400D0002404F0CAF820461CBDF8B50E46307A1D46144606AF400928BF4C
:20662C00082027D23888002818BF0B2022D10846694603F055F9012804BF002101200CD008
:20664C00BDF800004AF62121471A4FF000000CD07F1E012F03D901460A202980F8BD0121E1
:20666C002980F16809782170F8BD04212980F16809682160F8BDF8B50E46307A1D4614460F
:20668C0006AF400928BF082027D23888002818BF0B2022D10846694603F022F9012804BF14
:2066AC00002101200CD0BDF800004AF60121471A4FF000000CD07F1E012F03D901460A2003
:2066CC002980F8BD01212980F16809782170F8BD04212980F16809682160F8BDF8B50E4696
:2066EC00307A1D46144606AF400928BF082027D23888002818BF0B2022D10846694603F054
:20670C00EFF8012804BF002101200CD0BDF800004AF67121471A4FF000000CD07F1E012FAC
:20672C0003D901460A202980F8BD01212980F16809782170F8BD02212980F1680988218060
:20674C00F8BD00007CB5174D0C46103DE968064603F00AFF400823D330461B210222002374
:20676C0003F002FA0190D8B12A4602F118000921521C03F0F9FB02214089ADF80210ADF8C2
:20678C000000019D2C7001982312002269464370304603F081FB18B168461B2103F0F2FBE9
:2067AC007CBDC0464C1900201FB5154B0C4601461046002269B1491E08D0491E1CD1012CEA
:2067CC0009D1114B5B1C0078187016E0012C02D1F9E7022C01D018220FE00088991C08803D
